{
  "contractName": "Lottery",
  "abi": [
    {
      "constant": true,
      "inputs": [],
      "name": "organizer",
      "outputs": [
        {
          "name": "",
          "type": "address"
        }
      ],
      "payable": false,
      "stateMutability": "view",
      "type": "function",
      "signature": "0x61203265"
    },
    {
      "inputs": [],
      "payable": false,
      "stateMutability": "nonpayable",
      "type": "constructor",
      "signature": "constructor"
    },
    {
      "anonymous": false,
      "inputs": [
        {
          "indexed": false,
          "name": "winner",
          "type": "address"
        },
        {
          "indexed": false,
          "name": "amount",
          "type": "uint256"
        }
      ],
      "name": "LogWinnerDetermined",
      "type": "event",
      "signature": "0x8c36fbcc3452a3aae1bd40212f3a0da6225cd85c5d13a7b87fd64f85523a244f"
    },
    {
      "anonymous": false,
      "inputs": [
        {
          "indexed": false,
          "name": "participant",
          "type": "address"
        }
      ],
      "name": "LogBidMade",
      "type": "event",
      "signature": "0x3d079e75ab7e2b31f041f27ce6e4d659f4ae2d6c2a5cd6bf92754420f6410979"
    },
    {
      "anonymous": false,
      "inputs": [
        {
          "indexed": false,
          "name": "randomNumber",
          "type": "uint256"
        }
      ],
      "name": "LogGeneratedRandomNumber",
      "type": "event",
      "signature": "0x73868e7c06789691662f996fc7cb781e79ed4c38915a9c9a85ea51206523392d"
    },
    {
      "constant": false,
      "inputs": [],
      "name": "bid",
      "outputs": [],
      "payable": true,
      "stateMutability": "payable",
      "type": "function",
      "signature": "0x1998aeef"
    },
    {
      "constant": false,
      "inputs": [],
      "name": "determineWinner",
      "outputs": [],
      "payable": true,
      "stateMutability": "payable",
      "type": "function",
      "signature": "0x33b16d93"
    },
    {
      "constant": false,
      "inputs": [
        {
          "name": "_myid",
          "type": "bytes32"
        },
        {
          "name": "_result",
          "type": "string"
        }
      ],
      "name": "__callback",
      "outputs": [],
      "payable": false,
      "stateMutability": "nonpayable",
      "type": "function",
      "signature": "0x27dc297e"
    },
    {
      "constant": false,
      "inputs": [
        {
          "name": "_myid",
          "type": "bytes32"
        },
        {
          "name": "_result",
          "type": "string"
        },
        {
          "name": "_proof",
          "type": "bytes"
        }
      ],
      "name": "__callback",
      "outputs": [],
      "payable": false,
      "stateMutability": "nonpayable",
      "type": "function",
      "signature": "0x38bbfa50"
    }
  ],
  "bytecode": "0x608060405234801561001057600080fd5b5033600560006101000a81548173ffffffffffffffffffffffffffffffffffffffff021916908373ffffffffffffffffffffffffffffffffffffffff1602179055506000600760006101000a81548160ff0219169083600281111561007157fe5b0217905550612325806100856000396000f3fe60806040526004361061006d576000357c0100000000000000000000000000000000000000000000000000000000900463ffffffff1680631998aeef1461007257806327dc297e1461007c57806333b16d931461014e57806338bbfa501461015857806361203265146102c1575b600080fd5b61007a610318565b005b34801561008857600080fd5b5061014c6004803603604081101561009f57600080fd5b8101908080359060200190929190803590602001906401000000008111156100c657600080fd5b8201836020820111156100d857600080fd5b803590602001918460018302840111640100000000831117156100fa57600080fd5b91908080601f016020809104026020016040519081016040528093929190818152602001838380828437600081840152601f19601f820116905080830192505050505050509192919290505050610525565b005b610156610568565b005b34801561016457600080fd5b506102bf6004803603606081101561017b57600080fd5b8101908080359060200190929190803590602001906401000000008111156101a257600080fd5b8201836020820111156101b457600080fd5b803590602001918460018302840111640100000000831117156101d657600080fd5b91908080601f016020809104026020016040519081016040528093929190818152602001838380828437600081840152601f19601f8201169050808301925050505050505091929192908035906020019064010000000081111561023957600080fd5b82018360208201111561024b57600080fd5b8035906020019184600183028401116401000000008311171561026d57600080fd5b91908080601f016020809104026020016040519081016040528093929190818152602001838380828437600081840152601f19601f820116905080830192505050505050509192919290505050610972565b005b3480156102cd57600080fd5b506102d6610cb1565b604051808273ffffffffffffffffffffffffffffffffffffffff1673ffffffffffffffffffffffffffffffffffffffff16815260200191505060405180910390f35b6000600281111561032557fe5b600760009054906101000a900460ff16600281111561034057fe5b1415156103b5576040517f08c379a00000000000000000000000000000000000000000000000000000000081526004018080602001828103825260178152602001807f6c6f747465727920697320616c7265616479206f76657200000000000000000081525060200191505060405180910390fd5b67016345785d8a00003414151561045a576040517f08c379a00000000000000000000000000000000000000000000000000000000081526004018080602001828103825260228152602001807f796f752063616e2062696420776974682065786163746c7920302e312065746881526020017f657200000000000000000000000000000000000000000000000000000000000081525060400191505060405180910390fd5b60063390806001815401808255809150509060018203906000526020600020016000909192909190916101000a81548173ffffffffffffffffffffffffffffffffffffffff021916908373ffffffffffffffffffffffffffffffffffffffff160217905550507f3d079e75ab7e2b31f041f27ce6e4d659f4ae2d6c2a5cd6bf92754420f641097933604051808273ffffffffffffffffffffffffffffffffffffffff1673ffffffffffffffffffffffffffffffffffffffff16815260200191505060405180910390a1565b610564828260006040519080825280601f01601f19166020018201604052801561055e5781602001600182028038833980820191505090505b50610972565b5050565b600560009054906101000a900473ffffffffffffffffffffffffffffffffffffffff1673ffffffffffffffffffffffffffffffffffffffff163373ffffffffffffffffffffffffffffffffffffffff16141515610653576040517f08c379a00000000000000000000000000000000000000000000000000000000081526004018080602001828103825260218152602001807f6f6e6c7920746865206f7267616e697a65722063616e2065786563757465206981526020017f740000000000000000000000000000000000000000000000000000000000000081525060400191505060405180910390fd5b60006006805490501115156106f6576040517f08c379a00000000000000000000000000000000000000000000000000000000081526004018080602001828103825260218152602001807f7265717569726564206174206c65617374206f6e65207061727469636970616e81526020017f740000000000000000000000000000000000000000000000000000000000000081525060400191505060405180910390fd5b60028081111561070257fe5b600760009054906101000a900460ff16600281111561071d57fe5b14151515610793576040517f08c379a000000000000000000000000000000000000000000000000000000000815260040180806020018281038252601d8152602001807f4c6f74746572792068617320616c7265616479206265656e207061696400000081525060200191505060405180910390fd5b6107d16040805190810160405280600381526020017f55524c0000000000000000000000000000000000000000000000000000000000815250610cd7565b3073ffffffffffffffffffffffffffffffffffffffff1631111515610884576040517f08c379a00000000000000000000000000000000000000000000000000000000081526004018080602001828103825260288152602001807f746f6f206c6f772062616c616e636520746f2070617920666f722072616e646f81526020017f6d206e756d62657200000000000000000000000000000000000000000000000081525060400191505060405180910390fd5b6001600760006101000a81548160ff021916908360028111156108a357fe5b02179055506108d460307f0100000000000000000000000000000000000000000000000000000000000000026110be565b61096f6040805190810160405280600381526020017f55524c0000000000000000000000000000000000000000000000000000000000815250606060405190810160405280602a81526020017f68747470733a2f2f7777772e7575696467656e657261746f722e6e65742f617081526020017f692f76657273696f6e340000000000000000000000000000000000000000000081525061145c565b50565b61097a611a15565b73ffffffffffffffffffffffffffffffffffffffff163373ffffffffffffffffffffffffffffffffffffffff161415156109b357600080fd5b6002808111156109bf57fe5b600760009054906101000a900460ff1660028111156109da57fe5b14151515610a50576040517f08c379a000000000000000000000000000000000000000000000000000000000815260040180806020018281038252601d8152602001807f4c6f74746572792068617320616c7265616479206265656e207061696400000081525060200191505060405180910390fd5b60006701000000000000009050600081846040516020018082805190602001908083835b602083101515610a995780518252602082019150602081019050602083039250610a74565b6001836020036101000a0380198251168184511680821785525050505050509050019150506040516020818303038152906040528051906020012060019004811515610ae157fe5b0690507f73868e7c06789691662f996fc7cb781e79ed4c38915a9c9a85ea51206523392d816040518082815260200191505060405180910390a160003073ffffffffffffffffffffffffffffffffffffffff163190506000600a82811515610b4557fe5b04820390506000600160068054905085811515610b5e57fe5b060190506000600682815481101515610b7357fe5b9060005260206000200160009054906101000a900473ffffffffffffffffffffffffffffffffffffffff1690508073ffffffffffffffffffffffffffffffffffffffff166108fc849081150290604051600060405180830381858888f19350505050158015610be6573d6000803e3d6000fd5b506002600760006101000a81548160ff02191690836002811115610c0657fe5b02179055507f8c36fbcc3452a3aae1bd40212f3a0da6225cd85c5d13a7b87fd64f85523a244f8184604051808373ffffffffffffffffffffffffffffffffffffffff1673ffffffffffffffffffffffffffffffffffffffff1681526020018281526020019250505060405180910390a1600560009054906101000a900473ffffffffffffffffffffffffffffffffffffffff1673ffffffffffffffffffffffffffffffffffffffff16ff5b600560009054906101000a900473ffffffffffffffffffffffffffffffffffffffff1681565b60008073ffffffffffffffffffffffffffffffffffffffff16600160009054906101000a900473ffffffffffffffffffffffffffffffffffffffff1673ffffffffffffffffffffffffffffffffffffffff161480610d5f57506000610d5d600160009054906101000a900473ffffffffffffffffffffffffffffffffffffffff16611d88565b145b15610d7057610d6e6000611d93565b505b600160009054906101000a900473ffffffffffffffffffffffffffffffffffffffff1673ffffffffffffffffffffffffffffffffffffffff166338cc48316040518163ffffffff167c0100000000000000000000000000000000000000000000000000000000028152600401602060405180830381600087803b158015610df657600080fd5b505af1158015610e0a573d6000803e3d6000fd5b505050506040513d6020811015610e2057600080fd5b810190808051906020019092919050505073ffffffffffffffffffffffffffffffffffffffff166000809054906101000a900473ffffffffffffffffffffffffffffffffffffffff1673ffffffffffffffffffffffffffffffffffffffff16141515610f8757600160009054906101000a900473ffffffffffffffffffffffffffffffffffffffff1673ffffffffffffffffffffffffffffffffffffffff166338cc48316040518163ffffffff167c0100000000000000000000000000000000000000000000000000000000028152600401602060405180830381600087803b158015610f0c57600080fd5b505af1158015610f20573d6000803e3d6000fd5b505050506040513d6020811015610f3657600080fd5b81019080805190602001909291905050506000806101000a81548173ffffffffffffffffffffffffffffffffffffffff021916908373ffffffffffffffffffffffffffffffffffffffff1602179055505b6000809054906101000a900473ffffffffffffffffffffffffffffffffffffffff1673ffffffffffffffffffffffffffffffffffffffff1663524f3889836040518263ffffffff167c01000000000000000000000000000000000000000000000000000000000281526004018080602001828103825283818151815260200191508051906020019080838360005b83811015611030578082015181840152602081019050611015565b50505050905090810190601f16801561105d5780820380516001836020036101000a031916815260200191505b5092505050602060405180830381600087803b15801561107c57600080fd5b505af1158015611090573d6000803e3d6000fd5b505050506040513d60208110156110a657600080fd5b81019080805190602001909291905050509050919050565b600073ffffffffffffffffffffffffffffffffffffffff16600160009054906101000a900473ffffffffffffffffffffffffffffffffffffffff1673ffffffffffffffffffffffffffffffffffffffff16148061114557506000611143600160009054906101000a900473ffffffffffffffffffffffffffffffffffffffff16611d88565b145b15611156576111546000611d93565b505b600160009054906101000a900473ffffffffffffffffffffffffffffffffffffffff1673ffffffffffffffffffffffffffffffffffffffff166338cc48316040518163ffffffff167c0100000000000000000000000000000000000000000000000000000000028152600401602060405180830381600087803b1580156111dc57600080fd5b505af11580156111f0573d6000803e3d6000fd5b505050506040513d602081101561120657600080fd5b810190808051906020019092919050505073ffffffffffffffffffffffffffffffffffffffff166000809054906101000a900473ffffffffffffffffffffffffffffffffffffffff1673ffffffffffffffffffffffffffffffffffffffff1614151561136d57600160009054906101000a900473ffffffffffffffffffffffffffffffffffffffff1673ffffffffffffffffffffffffffffffffffffffff166338cc48316040518163ffffffff167c0100000000000000000000000000000000000000000000000000000000028152600401602060405180830381600087803b1580156112f257600080fd5b505af1158015611306573d6000803e3d6000fd5b505050506040513d602081101561131c57600080fd5b81019080805190602001909291905050506000806101000a81548173ffffffffffffffffffffffffffffffffffffffff021916908373ffffffffffffffffffffffffffffffffffffffff1602179055505b6000809054906101000a900473ffffffffffffffffffffffffffffffffffffffff1673ffffffffffffffffffffffffffffffffffffffff1663688dcfd7826040518263ffffffff167c010000000000000000000000000000000000000000000000000000000002815260040180827effffffffffffffffffffffffffffffffffffffffffffffffffffffffffffff19167effffffffffffffffffffffffffffffffffffffffffffffffffffffffffffff19168152602001915050600060405180830381600087803b15801561144157600080fd5b505af1158015611455573d6000803e3d6000fd5b5050505050565b60008073ffffffffffffffffffffffffffffffffffffffff16600160009054906101000a900473ffffffffffffffffffffffffffffffffffffffff1673ffffffffffffffffffffffffffffffffffffffff1614806114e4575060006114e2600160009054906101000a900473ffffffffffffffffffffffffffffffffffffffff16611d88565b145b156114f5576114f36000611d93565b505b600160009054906101000a900473ffffffffffffffffffffffffffffffffffffffff1673ffffffffffffffffffffffffffffffffffffffff166338cc48316040518163ffffffff167c0100000000000000000000000000000000000000000000000000000000028152600401602060405180830381600087803b15801561157b57600080fd5b505af115801561158f573d6000803e3d6000fd5b505050506040513d60208110156115a557600080fd5b810190808051906020019092919050505073ffffffffffffffffffffffffffffffffffffffff166000809054906101000a900473ffffffffffffffffffffffffffffffffffffffff1673ffffffffffffffffffffffffffffffffffffffff1614151561170c57600160009054906101000a900473ffffffffffffffffffffffffffffffffffffffff1673ffffffffffffffffffffffffffffffffffffffff166338cc48316040518163ffffffff167c0100000000000000000000000000000000000000000000000000000000028152600401602060405180830381600087803b15801561169157600080fd5b505af11580156116a5573d6000803e3d6000fd5b505050506040513d60208110156116bb57600080fd5b81019080805190602001909291905050506000806101000a81548173ffffffffffffffffffffffffffffffffffffffff021916908373ffffffffffffffffffffffffffffffffffffffff1602179055505b60008060009054906101000a900473ffffffffffffffffffffffffffffffffffffffff1673ffffffffffffffffffffffffffffffffffffffff1663524f3889856040518263ffffffff167c01000000000000000000000000000000000000000000000000000000000281526004018080602001828103825283818151815260200191508051906020019080838360005b838110156117b757808201518184015260208101905061179c565b50505050905090810190601f1680156117e45780820380516001836020036101000a031916815260200191505b5092505050602060405180830381600087803b15801561180357600080fd5b505af1158015611817573d6000803e3d6000fd5b505050506040513d602081101561182d57600080fd5b8101908080519060200190929190505050905062030d403a02670de0b6b3a764000001811115611864576000600102915050611a0f565b6000809054906101000a900473ffffffffffffffffffffffffffffffffffffffff1673ffffffffffffffffffffffffffffffffffffffff1663adf59f9982600087876040518563ffffffff167c0100000000000000000000000000000000000000000000000000000000028152600401808481526020018060200180602001838103835285818151815260200191508051906020019080838360005b8381101561191b578082015181840152602081019050611900565b50505050905090810190601f1680156119485780820380516001836020036101000a031916815260200191505b50838103825284818151815260200191508051906020019080838360005b83811015611981578082015181840152602081019050611966565b50505050905090810190601f1680156119ae5780820380516001836020036101000a031916815260200191505b50955050505050506020604051808303818588803b1580156119cf57600080fd5b505af11580156119e3573d6000803e3d6000fd5b50505050506040513d60208110156119fa57600080fd5b81019080805190602001909291905050509150505b92915050565b60008073ffffffffffffffffffffffffffffffffffffffff16600160009054906101000a900473ffffffffffffffffffffffffffffffffffffffff1673ffffffffffffffffffffffffffffffffffffffff161480611a9d57506000611a9b600160009054906101000a900473ffffffffffffffffffffffffffffffffffffffff16611d88565b145b15611aae57611aac6000611d93565b505b600160009054906101000a900473ffffffffffffffffffffffffffffffffffffffff1673ffffffffffffffffffffffffffffffffffffffff166338cc48316040518163ffffffff167c0100000000000000000000000000000000000000000000000000000000028152600401602060405180830381600087803b158015611b3457600080fd5b505af1158015611b48573d6000803e3d6000fd5b505050506040513d6020811015611b5e57600080fd5b810190808051906020019092919050505073ffffffffffffffffffffffffffffffffffffffff166000809054906101000a900473ffffffffffffffffffffffffffffffffffffffff1673ffffffffffffffffffffffffffffffffffffffff16141515611cc557600160009054906101000a900473ffffffffffffffffffffffffffffffffffffffff1673ffffffffffffffffffffffffffffffffffffffff166338cc48316040518163ffffffff167c0100000000000000000000000000000000000000000000000000000000028152600401602060405180830381600087803b158015611c4a57600080fd5b505af1158015611c5e573d6000803e3d6000fd5b505050506040513d6020811015611c7457600080fd5b81019080805190602001909291905050506000806101000a81548173ffffffffffffffffffffffffffffffffffffffff021916908373ffffffffffffffffffffffffffffffffffffffff1602179055505b6000809054906101000a900473ffffffffffffffffffffffffffffffffffffffff1673ffffffffffffffffffffffffffffffffffffffff1663c281d19e6040518163ffffffff167c010000000000000000000000000000000000000000000000000000000002815260040160206040518083038186803b158015611d4857600080fd5b505afa158015611d5c573d6000803e3d6000fd5b505050506040513d6020811015611d7257600080fd5b8101908080519060200190929190505050905090565b6000813b9050919050565b6000611d9d611da4565b9050919050565b600080611dc4731d3b2638a7cc9f2cb3d298a3da7a90b67e5506ed611d88565b1115611e6657731d3b2638a7cc9f2cb3d298a3da7a90b67e5506ed600160006101000a81548173ffffffffffffffffffffffffffffffffffffffff021916908373ffffffffffffffffffffffffffffffffffffffff160217905550611e5d6040805190810160405280600b81526020017f6574685f6d61696e6e657400000000000000000000000000000000000000000081525061223a565b60019050612237565b6000611e8573c03a2615d5efaf5f49f60b7bb6583eaec212fdf1611d88565b1115611f275773c03a2615d5efaf5f49f60b7bb6583eaec212fdf1600160006101000a81548173ffffffffffffffffffffffffffffffffffffffff021916908373ffffffffffffffffffffffffffffffffffffffff160217905550611f1e6040805190810160405280600c81526020017f6574685f726f707374656e33000000000000000000000000000000000000000081525061223a565b60019050612237565b6000611f4673b7a07bcf2ba2f2703b24c0691b5278999c59ac7e611d88565b1115611fe85773b7a07bcf2ba2f2703b24c0691b5278999c59ac7e600160006101000a81548173ffffffffffffffffffffffffffffffffffffffff021916908373ffffffffffffffffffffffffffffffffffffffff160217905550611fdf6040805190810160405280600981526020017f6574685f6b6f76616e000000000000000000000000000000000000000000000081525061223a565b60019050612237565b600061200773146500cfd35b22e4a392fe0adc06de1a1368ed48611d88565b11156120a95773146500cfd35b22e4a392fe0adc06de1a1368ed48600160006101000a81548173ffffffffffffffffffffffffffffffffffffffff021916908373ffffffffffffffffffffffffffffffffffffffff1602179055506120a06040805190810160405280600b81526020017f6574685f72696e6b65627900000000000000000000000000000000000000000081525061223a565b60019050612237565b60006120c8736f485c8bf6fc43ea212e93bbf8ce046c7f1cb475611d88565b111561212c57736f485c8bf6fc43ea212e93bbf8ce046c7f1cb475600160006101000a81548173ffffffffffffffffffffffffffffffffffffffff021916908373ffffffffffffffffffffffffffffffffffffffff16021790555060019050612237565b600061214b7320e12a1f859b3feae5fb2a0a32c18f5a65555bbf611d88565b11156121af577320e12a1f859b3feae5fb2a0a32c18f5a65555bbf600160006101000a81548173ffffffffffffffffffffffffffffffffffffffff021916908373ffffffffffffffffffffffffffffffffffffffff16021790555060019050612237565b60006121ce7351efaf4c8b3c9afbd5ab9f4bbc82784ab6ef8faa611d88565b1115612232577351efaf4c8b3c9afbd5ab9f4bbc82784ab6ef8faa600160006101000a81548173ffffffffffffffffffffffffffffffffffffffff021916908373ffffffffffffffffffffffffffffffffffffffff16021790555060019050612237565b600090505b90565b8060029080519060200190612250929190612254565b5050565b828054600181600116156101000203166002900490600052602060002090601f016020900481019282601f1061229557805160ff19168380011785556122c3565b828001600101855582156122c3579182015b828111156122c25782518255916020019190600101906122a7565b5b5090506122d091906122d4565b5090565b6122f691905b808211156122f25760008160009055506001016122da565b5090565b9056fea165627a7a723058208039cd93e24973b354e3944f7a7c988bafe04bc868e7d00fb3c679869722f4b10029",
  "source": "pragma solidity ^0.5.0;\n\nimport \"./oraclizeAPI.sol\";\n\ncontract Lottery is usingOraclize {\n\n    enum LotteryState { Accepting, Finished, Paid }\n\n    event LogWinnerDetermined(address winner, uint256 amount);\n    event LogBidMade(address participant);\n    event LogGeneratedRandomNumber(uint randomNumber);\n\n    address payable public organizer;\n    address payable[] participants;\n    LotteryState state; \n\n\n    constructor() public {\n        organizer = msg.sender;\n        state = LotteryState.Accepting;\n    }\n\n    modifier onlyOwner() {\n        require(msg.sender == organizer, \"only the organizer can execute it\"); \n        _;\n    }\n\n    function bid() public payable {\n        require(state == LotteryState.Accepting, \"lottery is already over\");\n        require(msg.value == 0.1 ether, \"you can bid with exactly 0.1 ether\");\n        participants.push(msg.sender);\n\n        emit LogBidMade(msg.sender);\n    }\n\n    function determineWinner() public payable onlyOwner {\n        require(participants.length > 0, \"required at least one participant\");\n        require(state != LotteryState.Paid, \"Lottery has already been paid\");\n        require(address(this).balance > oraclize_getPrice(\"URL\"), \"too low balance to pay for random number\");\n\n        state = LotteryState.Finished;\n        oraclize_setProof(proofType_Ledger); // sets the Ledger authenticity proof       \n        oraclize_query(\"URL\", \"https://www.uuidgenerator.net/api/version4\");\n    }    \n\n    function __callback(bytes32 _myid, string memory _result, bytes memory _proof) public {\n        require(msg.sender == oraclize_cbAddress());\n        require(state != LotteryState.Paid, \"Lottery has already been paid\");\n       // if (oraclize_randomDS_proofVerify__returnCode(queryId, result, proof) != 0) {\n            //revert();\n      //  } \n        uint maxRange = 2**(8* 7);\n        uint randomNumber = uint(keccak256(abi.encodePacked(_result))) % maxRange;\n        emit LogGeneratedRandomNumber(randomNumber);\n\n        uint256 balance = address(this).balance;\n        uint256 winningPrice = balance - (balance / 10);\n    \n        uint256 winningIndex = randomNumber % participants.length + 1;\n        address payable winner = participants[winningIndex];\n        \n        winner.transfer(winningPrice);\n        state = LotteryState.Paid;\n\n        emit LogWinnerDetermined(winner, winningPrice);\n        selfdestruct(organizer);\n    }\n}\n",
  "sourcePath": "/home/mike/IdeaProjects/ethereum/contracts/Lottery.sol",
  "compiler": {
    "name": "solc",
    "version": "0.5.0+commit.1d4f565a.Emscripten.clang"
  },
  "schemaVersion": "3.0.1",
  "updatedAt": "2019-01-18T22:36:52.007Z",
  "devdoc": {
    "methods": {}
  },
  "userdoc": {
    "methods": {}
  }
}