{
  "contractName": "Lottery",
  "abi": [
    {
      "constant": true,
      "inputs": [],
      "name": "owner",
      "outputs": [
        {
          "name": "",
          "type": "address"
        }
      ],
      "payable": false,
      "stateMutability": "view",
      "type": "function"
    },
    {
      "inputs": [],
      "payable": false,
      "stateMutability": "nonpayable",
      "type": "constructor"
    },
    {
      "constant": false,
      "inputs": [],
      "name": "buyCoupon",
      "outputs": [],
      "payable": true,
      "stateMutability": "payable",
      "type": "function"
    },
    {
      "constant": false,
      "inputs": [],
      "name": "determineWinner",
      "outputs": [],
      "payable": false,
      "stateMutability": "nonpayable",
      "type": "function"
    }
  ],
  "bytecode": "0x608060405234801561001057600080fd5b50336000806101000a81548173ffffffffffffffffffffffffffffffffffffffff021916908373ffffffffffffffffffffffffffffffffffffffff1602179055506000600260006101000a81548160ff0219169083600181111561007057fe5b0217905550610607806100846000396000f3fe608060405260043610610057576000357c0100000000000000000000000000000000000000000000000000000000900463ffffffff16806333b16d931461005c578063405f3aab146100735780638da5cb5b1461007d575b600080fd5b34801561006857600080fd5b506100716100d4565b005b61007b610369565b005b34801561008957600080fd5b50610092610513565b604051808273ffffffffffffffffffffffffffffffffffffffff1673ffffffffffffffffffffffffffffffffffffffff16815260200191505060405180910390f35b6000809054906101000a900473ffffffffffffffffffffffffffffffffffffffff1673ffffffffffffffffffffffffffffffffffffffff163373ffffffffffffffffffffffffffffffffffffffff16141515610198576040517f08c379a000000000000000000000000000000000000000000000000000000000815260040180806020018281038252601d8152602001807f6f6e6c7920746865206f776e65722063616e206578656375746520697400000081525060200191505060405180910390fd5b6001600260006101000a81548160ff021916908360018111156101b757fe5b0217905550600060018054905011151561025f576040517f08c379a00000000000000000000000000000000000000000000000000000000081526004018080602001828103825260218152602001807f7265717569726564206174206c65617374206f6e65207061727469636970616e81526020017f740000000000000000000000000000000000000000000000000000000000000081525060400191505060405180910390fd5b60003073ffffffffffffffffffffffffffffffffffffffff163190506000600a8281151561028957fe5b0482039050600060018054905061029e610538565b8115156102a757fe5b06905060006001828154811015156102bb57fe5b9060005260206000200160009054906101000a900473ffffffffffffffffffffffffffffffffffffffff1690508073ffffffffffffffffffffffffffffffffffffffff166108fc849081150290604051600060405180830381858888f1935050505015801561032e573d6000803e3d6000fd5b506000809054906101000a900473ffffffffffffffffffffffffffffffffffffffff1673ffffffffffffffffffffffffffffffffffffffff16ff5b6000600181111561037657fe5b600260009054906101000a900460ff16600181111561039157fe5b141515610406576040517f08c379a00000000000000000000000000000000000000000000000000000000081526004018080602001828103825260178152602001807f6c6f747465727920697320616c7265616479206f76657200000000000000000081525060200191505060405180910390fd5b67016345785d8a0000341415156104ab576040517f08c379a000000000000000000000000000000000000000000000000000000000815260040180806020018281038252602c8152602001807f796f752063616e207370656e642065786163746c7920302e312065746865722081526020017f666f72206120636f75706f6e000000000000000000000000000000000000000081525060400191505060405180910390fd5b60013390806001815401808255809150509060018203906000526020600020016000909192909190916101000a81548173ffffffffffffffffffffffffffffffffffffffff021916908373ffffffffffffffffffffffffffffffffffffffff16021790555050565b6000809054906101000a900473ffffffffffffffffffffffffffffffffffffffff1681565b6000444260016040516020018084815260200183815260200182805480156105b557602002820191906000526020600020905b8160009054906101000a900473ffffffffffffffffffffffffffffffffffffffff1673ffffffffffffffffffffffffffffffffffffffff168152602001906001019080831161056b575b50509350505050604051602081830303815290604052805190602001206001900490509056fea165627a7a72305820cf76ca103a56c4e68b22886af722db7d6a1b17a057f0915bf20aff472ae4c8f30029",
  "source": "pragma solidity ^0.5.0;\n\n\ncontract Lottery {\n\n    enum LotteryState { Accepting, Finished }\n\n    address payable public owner;\n    address payable[] participants;\n    LotteryState state; \n    \n\n    constructor() public {\n        owner = msg.sender;\n        state = LotteryState.Accepting;\n    }\n\n    modifier onlyOwner() {\n        require(msg.sender == owner, \"only the owner can execute it\"); \n        _;\n    }\n\n    function buyCoupon() public payable {\n        require(state == LotteryState.Accepting, \"lottery is already over\");\n        require(msg.value == 0.1 ether, \"you can spend exactly 0.1 ether for a coupon\");\n        participants.push(msg.sender);\n    }\n\n    function determineWinner() public onlyOwner {\n        state = LotteryState.Finished;\n        require(participants.length > 0, \"required at least one participant\");\n\n        uint256 balance = address(this).balance;\n        uint256 winningPrice = balance - (balance / 10);\n    \n        uint256 winningIndex = random() % participants.length;\n        address payable winner = participants[winningIndex];\n        \n        winner.transfer(winningPrice);\n        selfdestruct(owner);\n    }\n\n    function random() private view returns (uint) {\n        return uint(keccak256(abi.encodePacked(block.difficulty,now,participants)));\n    }\n}\n",
  "sourcePath": "/home/mike/IdeaProjects/ethereum/contracts/Lottery.sol",
  "compiler": {
    "name": "solc",
    "version": "0.5.0+commit.1d4f565a.Emscripten.clang"
  },
  "schemaVersion": "3.0.1",
  "updatedAt": "2019-01-14T21:11:13.629Z",
  "devdoc": {
    "methods": {}
  },
  "userdoc": {
    "methods": {}
  }
}